{
  "address": "0xa77fB3F7a9eB499C137Be2e226bBa5CeEAd1f57e",
  "abi": [
    {
      "inputs": [
        {
          "internalType": "address",
          "name": "_endpoint",
          "type": "address"
        },
        {
          "internalType": "address",
          "name": "_owner",
          "type": "address"
        }
      ],
      "stateMutability": "nonpayable",
      "type": "constructor"
    },
    {
      "inputs": [],
      "name": "InvalidDelegate",
      "type": "error"
    },
    {
      "inputs": [],
      "name": "InvalidEndpointCall",
      "type": "error"
    },
    {
      "inputs": [
        {
          "internalType": "uint16",
          "name": "optionType",
          "type": "uint16"
        }
      ],
      "name": "InvalidOptionType",
      "type": "error"
    },
    {
      "inputs": [
        {
          "internalType": "bytes",
          "name": "options",
          "type": "bytes"
        }
      ],
      "name": "InvalidOptions",
      "type": "error"
    },
    {
      "inputs": [],
      "name": "LzTokenUnavailable",
      "type": "error"
    },
    {
      "inputs": [
        {
          "internalType": "uint32",
          "name": "eid",
          "type": "uint32"
        }
      ],
      "name": "NoPeer",
      "type": "error"
    },
    {
      "inputs": [
        {
          "internalType": "uint256",
          "name": "msgValue",
          "type": "uint256"
        }
      ],
      "name": "NotEnoughNative",
      "type": "error"
    },
    {
      "inputs": [
        {
          "internalType": "address",
          "name": "addr",
          "type": "address"
        }
      ],
      "name": "OnlyEndpoint",
      "type": "error"
    },
    {
      "inputs": [
        {
          "internalType": "uint32",
          "name": "eid",
          "type": "uint32"
        },
        {
          "internalType": "bytes32",
          "name": "sender",
          "type": "bytes32"
        }
      ],
      "name": "OnlyPeer",
      "type": "error"
    },
    {
      "inputs": [
        {
          "internalType": "address",
          "name": "owner",
          "type": "address"
        }
      ],
      "name": "OwnableInvalidOwner",
      "type": "error"
    },
    {
      "inputs": [
        {
          "internalType": "address",
          "name": "account",
          "type": "address"
        }
      ],
      "name": "OwnableUnauthorizedAccount",
      "type": "error"
    },
    {
      "inputs": [],
      "name": "ReentrancyGuardReentrantCall",
      "type": "error"
    },
    {
      "inputs": [
        {
          "internalType": "uint8",
          "name": "bits",
          "type": "uint8"
        },
        {
          "internalType": "uint256",
          "name": "value",
          "type": "uint256"
        }
      ],
      "name": "SafeCastOverflowedUintDowncast",
      "type": "error"
    },
    {
      "inputs": [
        {
          "internalType": "address",
          "name": "token",
          "type": "address"
        }
      ],
      "name": "SafeERC20FailedOperation",
      "type": "error"
    },
    {
      "anonymous": false,
      "inputs": [
        {
          "indexed": true,
          "internalType": "uint32",
          "name": "chainId",
          "type": "uint32"
        },
        {
          "indexed": false,
          "internalType": "bool",
          "name": "supported",
          "type": "bool"
        }
      ],
      "name": "ChainSupportUpdated",
      "type": "event"
    },
    {
      "anonymous": false,
      "inputs": [
        {
          "indexed": true,
          "internalType": "address",
          "name": "executor",
          "type": "address"
        },
        {
          "indexed": false,
          "internalType": "string",
          "name": "action",
          "type": "string"
        },
        {
          "indexed": false,
          "internalType": "uint32[]",
          "name": "chains",
          "type": "uint32[]"
        }
      ],
      "name": "EmergencyAction",
      "type": "event"
    },
    {
      "anonymous": false,
      "inputs": [
        {
          "components": [
            {
              "internalType": "uint32",
              "name": "eid",
              "type": "uint32"
            },
            {
              "internalType": "uint16",
              "name": "msgType",
              "type": "uint16"
            },
            {
              "internalType": "bytes",
              "name": "options",
              "type": "bytes"
            }
          ],
          "indexed": false,
          "internalType": "struct EnforcedOptionParam[]",
          "name": "_enforcedOptions",
          "type": "tuple[]"
        }
      ],
      "name": "EnforcedOptionSet",
      "type": "event"
    },
    {
      "anonymous": false,
      "inputs": [
        {
          "indexed": false,
          "internalType": "bytes",
          "name": "executionData",
          "type": "bytes"
        }
      ],
      "name": "LocalExecutionCompleted",
      "type": "event"
    },
    {
      "anonymous": false,
      "inputs": [
        {
          "indexed": true,
          "internalType": "address",
          "name": "previousOwner",
          "type": "address"
        },
        {
          "indexed": true,
          "internalType": "address",
          "name": "newOwner",
          "type": "address"
        }
      ],
      "name": "OwnershipTransferred",
      "type": "event"
    },
    {
      "anonymous": false,
      "inputs": [
        {
          "indexed": false,
          "internalType": "bool",
          "name": "isPaused",
          "type": "bool"
        }
      ],
      "name": "Paused",
      "type": "event"
    },
    {
      "anonymous": false,
      "inputs": [
        {
          "indexed": false,
          "internalType": "uint32",
          "name": "eid",
          "type": "uint32"
        },
        {
          "indexed": false,
          "internalType": "bytes32",
          "name": "peer",
          "type": "bytes32"
        }
      ],
      "name": "PeerSet",
      "type": "event"
    },
    {
      "anonymous": false,
      "inputs": [
        {
          "indexed": true,
          "internalType": "uint256",
          "name": "proposalId",
          "type": "uint256"
        }
      ],
      "name": "ProposalCanceled",
      "type": "event"
    },
    {
      "anonymous": false,
      "inputs": [
        {
          "indexed": true,
          "internalType": "uint256",
          "name": "proposalId",
          "type": "uint256"
        },
        {
          "indexed": true,
          "internalType": "address",
          "name": "proposer",
          "type": "address"
        },
        {
          "indexed": false,
          "internalType": "string",
          "name": "description",
          "type": "string"
        },
        {
          "indexed": false,
          "internalType": "enum OmniDaoController.ProposalType",
          "name": "proposalType",
          "type": "uint8"
        }
      ],
      "name": "ProposalCreated",
      "type": "event"
    },
    {
      "anonymous": false,
      "inputs": [
        {
          "indexed": true,
          "internalType": "uint256",
          "name": "proposalId",
          "type": "uint256"
        }
      ],
      "name": "ProposalExecuted",
      "type": "event"
    },
    {
      "anonymous": false,
      "inputs": [
        {
          "indexed": true,
          "internalType": "uint32",
          "name": "chainId",
          "type": "uint32"
        },
        {
          "indexed": false,
          "internalType": "address",
          "name": "executor",
          "type": "address"
        }
      ],
      "name": "RemoteExecutorUpdated",
      "type": "event"
    },
    {
      "anonymous": false,
      "inputs": [
        {
          "indexed": true,
          "internalType": "uint32",
          "name": "chainId",
          "type": "uint32"
        },
        {
          "indexed": true,
          "internalType": "address",
          "name": "executor",
          "type": "address"
        },
        {
          "indexed": true,
          "internalType": "bytes32",
          "name": "operationId",
          "type": "bytes32"
        },
        {
          "indexed": false,
          "internalType": "bytes",
          "name": "data",
          "type": "bytes"
        }
      ],
      "name": "RemoteOperationSent",
      "type": "event"
    },
    {
      "anonymous": false,
      "inputs": [
        {
          "indexed": true,
          "internalType": "uint256",
          "name": "proposalId",
          "type": "uint256"
        },
        {
          "indexed": true,
          "internalType": "address",
          "name": "voter",
          "type": "address"
        },
        {
          "indexed": false,
          "internalType": "enum OmniDaoController.VoteType",
          "name": "vote",
          "type": "uint8"
        }
      ],
      "name": "VoteCast",
      "type": "event"
    },
    {
      "anonymous": false,
      "inputs": [
        {
          "indexed": true,
          "internalType": "address",
          "name": "voter",
          "type": "address"
        },
        {
          "indexed": false,
          "internalType": "uint256",
          "name": "newVotingPower",
          "type": "uint256"
        }
      ],
      "name": "VotingPowerUpdated",
      "type": "event"
    },
    {
      "inputs": [],
      "name": "SEND",
      "outputs": [
        {
          "internalType": "uint16",
          "name": "",
          "type": "uint16"
        }
      ],
      "stateMutability": "view",
      "type": "function"
    },
    {
      "inputs": [
        {
          "components": [
            {
              "internalType": "uint32",
              "name": "srcEid",
              "type": "uint32"
            },
            {
              "internalType": "bytes32",
              "name": "sender",
              "type": "bytes32"
            },
            {
              "internalType": "uint64",
              "name": "nonce",
              "type": "uint64"
            }
          ],
          "internalType": "struct Origin",
          "name": "origin",
          "type": "tuple"
        }
      ],
      "name": "allowInitializePath",
      "outputs": [
        {
          "internalType": "bool",
          "name": "",
          "type": "bool"
        }
      ],
      "stateMutability": "view",
      "type": "function"
    },
    {
      "inputs": [
        {
          "internalType": "uint32",
          "name": "_eid",
          "type": "uint32"
        },
        {
          "internalType": "uint16",
          "name": "_msgType",
          "type": "uint16"
        },
        {
          "internalType": "bytes",
          "name": "_extraOptions",
          "type": "bytes"
        }
      ],
      "name": "combineOptions",
      "outputs": [
        {
          "internalType": "bytes",
          "name": "",
          "type": "bytes"
        }
      ],
      "stateMutability": "view",
      "type": "function"
    },
    {
      "inputs": [
        {
          "internalType": "string",
          "name": "description",
          "type": "string"
        },
        {
          "internalType": "enum OmniDaoController.ProposalType",
          "name": "proposalType",
          "type": "uint8"
        },
        {
          "internalType": "bytes",
          "name": "executionData",
          "type": "bytes"
        },
        {
          "internalType": "uint32[]",
          "name": "targetChainIds",
          "type": "uint32[]"
        },
        {
          "internalType": "bytes32[]",
          "name": "remoteCallData",
          "type": "bytes32[]"
        }
      ],
      "name": "createProposal",
      "outputs": [],
      "stateMutability": "nonpayable",
      "type": "function"
    },
    {
      "inputs": [],
      "name": "emergencyPause",
      "outputs": [],
      "stateMutability": "nonpayable",
      "type": "function"
    },
    {
      "inputs": [],
      "name": "emergencyUnpause",
      "outputs": [],
      "stateMutability": "nonpayable",
      "type": "function"
    },
    {
      "inputs": [],
      "name": "endpoint",
      "outputs": [
        {
          "internalType": "contract ILayerZeroEndpointV2",
          "name": "",
          "type": "address"
        }
      ],
      "stateMutability": "view",
      "type": "function"
    },
    {
      "inputs": [
        {
          "internalType": "uint32",
          "name": "eid",
          "type": "uint32"
        },
        {
          "internalType": "uint16",
          "name": "msgType",
          "type": "uint16"
        }
      ],
      "name": "enforcedOptions",
      "outputs": [
        {
          "internalType": "bytes",
          "name": "enforcedOption",
          "type": "bytes"
        }
      ],
      "stateMutability": "view",
      "type": "function"
    },
    {
      "inputs": [
        {
          "internalType": "uint256",
          "name": "proposalId",
          "type": "uint256"
        }
      ],
      "name": "executeProposal",
      "outputs": [],
      "stateMutability": "payable",
      "type": "function"
    },
    {
      "inputs": [
        {
          "internalType": "bytes32",
          "name": "",
          "type": "bytes32"
        }
      ],
      "name": "executedOperations",
      "outputs": [
        {
          "internalType": "bool",
          "name": "",
          "type": "bool"
        }
      ],
      "stateMutability": "view",
      "type": "function"
    },
    {
      "inputs": [],
      "name": "getAllSupportedChains",
      "outputs": [
        {
          "internalType": "uint32[]",
          "name": "",
          "type": "uint32[]"
        }
      ],
      "stateMutability": "view",
      "type": "function"
    },
    {
      "inputs": [
        {
          "internalType": "uint256",
          "name": "proposalId",
          "type": "uint256"
        }
      ],
      "name": "getProposal",
      "outputs": [
        {
          "components": [
            {
              "internalType": "uint256",
              "name": "proposalId",
              "type": "uint256"
            },
            {
              "internalType": "address",
              "name": "proposer",
              "type": "address"
            },
            {
              "internalType": "string",
              "name": "description",
              "type": "string"
            },
            {
              "internalType": "uint256",
              "name": "votesFor",
              "type": "uint256"
            },
            {
              "internalType": "uint256",
              "name": "votesAgainst",
              "type": "uint256"
            },
            {
              "internalType": "uint256",
              "name": "endTime",
              "type": "uint256"
            },
            {
              "internalType": "uint256",
              "name": "startTime",
              "type": "uint256"
            },
            {
              "internalType": "bool",
              "name": "executed",
              "type": "bool"
            },
            {
              "internalType": "enum OmniDaoController.ProposalType",
              "name": "proposalType",
              "type": "uint8"
            },
            {
              "internalType": "bytes",
              "name": "executionData",
              "type": "bytes"
            },
            {
              "internalType": "uint32[]",
              "name": "targetChainIds",
              "type": "uint32[]"
            },
            {
              "internalType": "bytes32[]",
              "name": "remoteCallData",
              "type": "bytes32[]"
            }
          ],
          "internalType": "struct OmniDaoController.Proposal",
          "name": "",
          "type": "tuple"
        }
      ],
      "stateMutability": "view",
      "type": "function"
    },
    {
      "inputs": [
        {
          "internalType": "address",
          "name": "account",
          "type": "address"
        }
      ],
      "name": "getVotingPower",
      "outputs": [
        {
          "internalType": "uint256",
          "name": "",
          "type": "uint256"
        }
      ],
      "stateMutability": "view",
      "type": "function"
    },
    {
      "inputs": [
        {
          "internalType": "uint256",
          "name": "",
          "type": "uint256"
        },
        {
          "internalType": "address",
          "name": "",
          "type": "address"
        }
      ],
      "name": "hasVoted",
      "outputs": [
        {
          "internalType": "bool",
          "name": "",
          "type": "bool"
        }
      ],
      "stateMutability": "view",
      "type": "function"
    },
    {
      "inputs": [
        {
          "components": [
            {
              "internalType": "uint32",
              "name": "srcEid",
              "type": "uint32"
            },
            {
              "internalType": "bytes32",
              "name": "sender",
              "type": "bytes32"
            },
            {
              "internalType": "uint64",
              "name": "nonce",
              "type": "uint64"
            }
          ],
          "internalType": "struct Origin",
          "name": "",
          "type": "tuple"
        },
        {
          "internalType": "bytes",
          "name": "",
          "type": "bytes"
        },
        {
          "internalType": "address",
          "name": "_sender",
          "type": "address"
        }
      ],
      "name": "isComposeMsgSender",
      "outputs": [
        {
          "internalType": "bool",
          "name": "",
          "type": "bool"
        }
      ],
      "stateMutability": "view",
      "type": "function"
    },
    {
      "inputs": [
        {
          "internalType": "address",
          "name": "",
          "type": "address"
        }
      ],
      "name": "isPausable",
      "outputs": [
        {
          "internalType": "bool",
          "name": "",
          "type": "bool"
        }
      ],
      "stateMutability": "view",
      "type": "function"
    },
    {
      "inputs": [],
      "name": "isPaused",
      "outputs": [
        {
          "internalType": "bool",
          "name": "",
          "type": "bool"
        }
      ],
      "stateMutability": "view",
      "type": "function"
    },
    {
      "inputs": [
        {
          "internalType": "uint32",
          "name": "",
          "type": "uint32"
        }
      ],
      "name": "lastExecutionNonce",
      "outputs": [
        {
          "internalType": "uint256",
          "name": "",
          "type": "uint256"
        }
      ],
      "stateMutability": "view",
      "type": "function"
    },
    {
      "inputs": [
        {
          "components": [
            {
              "internalType": "uint32",
              "name": "srcEid",
              "type": "uint32"
            },
            {
              "internalType": "bytes32",
              "name": "sender",
              "type": "bytes32"
            },
            {
              "internalType": "uint64",
              "name": "nonce",
              "type": "uint64"
            }
          ],
          "internalType": "struct Origin",
          "name": "_origin",
          "type": "tuple"
        },
        {
          "internalType": "bytes32",
          "name": "_guid",
          "type": "bytes32"
        },
        {
          "internalType": "bytes",
          "name": "_message",
          "type": "bytes"
        },
        {
          "internalType": "address",
          "name": "_executor",
          "type": "address"
        },
        {
          "internalType": "bytes",
          "name": "_extraData",
          "type": "bytes"
        }
      ],
      "name": "lzReceive",
      "outputs": [],
      "stateMutability": "payable",
      "type": "function"
    },
    {
      "inputs": [],
      "name": "minimumVotingPower",
      "outputs": [
        {
          "internalType": "uint256",
          "name": "",
          "type": "uint256"
        }
      ],
      "stateMutability": "view",
      "type": "function"
    },
    {
      "inputs": [
        {
          "internalType": "uint32",
          "name": "srcEid",
          "type": "uint32"
        },
        {
          "internalType": "bytes32",
          "name": "sender",
          "type": "bytes32"
        }
      ],
      "name": "nextNonce",
      "outputs": [
        {
          "internalType": "uint64",
          "name": "",
          "type": "uint64"
        }
      ],
      "stateMutability": "view",
      "type": "function"
    },
    {
      "inputs": [],
      "name": "oAppVersion",
      "outputs": [
        {
          "internalType": "uint64",
          "name": "senderVersion",
          "type": "uint64"
        },
        {
          "internalType": "uint64",
          "name": "receiverVersion",
          "type": "uint64"
        }
      ],
      "stateMutability": "pure",
      "type": "function"
    },
    {
      "inputs": [],
      "name": "owner",
      "outputs": [
        {
          "internalType": "address",
          "name": "",
          "type": "address"
        }
      ],
      "stateMutability": "view",
      "type": "function"
    },
    {
      "inputs": [
        {
          "internalType": "uint32",
          "name": "eid",
          "type": "uint32"
        }
      ],
      "name": "peers",
      "outputs": [
        {
          "internalType": "bytes32",
          "name": "peer",
          "type": "bytes32"
        }
      ],
      "stateMutability": "view",
      "type": "function"
    },
    {
      "inputs": [],
      "name": "proposalCount",
      "outputs": [
        {
          "internalType": "uint256",
          "name": "",
          "type": "uint256"
        }
      ],
      "stateMutability": "view",
      "type": "function"
    },
    {
      "inputs": [
        {
          "internalType": "uint256",
          "name": "",
          "type": "uint256"
        }
      ],
      "name": "proposals",
      "outputs": [
        {
          "internalType": "uint256",
          "name": "proposalId",
          "type": "uint256"
        },
        {
          "internalType": "address",
          "name": "proposer",
          "type": "address"
        },
        {
          "internalType": "string",
          "name": "description",
          "type": "string"
        },
        {
          "internalType": "uint256",
          "name": "votesFor",
          "type": "uint256"
        },
        {
          "internalType": "uint256",
          "name": "votesAgainst",
          "type": "uint256"
        },
        {
          "internalType": "uint256",
          "name": "endTime",
          "type": "uint256"
        },
        {
          "internalType": "uint256",
          "name": "startTime",
          "type": "uint256"
        },
        {
          "internalType": "bool",
          "name": "executed",
          "type": "bool"
        },
        {
          "internalType": "enum OmniDaoController.ProposalType",
          "name": "proposalType",
          "type": "uint8"
        },
        {
          "internalType": "bytes",
          "name": "executionData",
          "type": "bytes"
        }
      ],
      "stateMutability": "view",
      "type": "function"
    },
    {
      "inputs": [],
      "name": "quorumThreshold",
      "outputs": [
        {
          "internalType": "uint256",
          "name": "",
          "type": "uint256"
        }
      ],
      "stateMutability": "view",
      "type": "function"
    },
    {
      "inputs": [
        {
          "internalType": "uint32",
          "name": "targetChain",
          "type": "uint32"
        },
        {
          "internalType": "bytes",
          "name": "message",
          "type": "bytes"
        },
        {
          "internalType": "bytes",
          "name": "options",
          "type": "bytes"
        },
        {
          "internalType": "bool",
          "name": "payInLzToken",
          "type": "bool"
        }
      ],
      "name": "quote",
      "outputs": [
        {
          "components": [
            {
              "internalType": "uint256",
              "name": "nativeFee",
              "type": "uint256"
            },
            {
              "internalType": "uint256",
              "name": "lzTokenFee",
              "type": "uint256"
            }
          ],
          "internalType": "struct MessagingFee",
          "name": "",
          "type": "tuple"
        }
      ],
      "stateMutability": "view",
      "type": "function"
    },
    {
      "inputs": [
        {
          "internalType": "uint32",
          "name": "_dstEid",
          "type": "uint32"
        },
        {
          "internalType": "string",
          "name": "_string",
          "type": "string"
        },
        {
          "internalType": "bytes",
          "name": "_options",
          "type": "bytes"
        },
        {
          "internalType": "bool",
          "name": "_payInLzToken",
          "type": "bool"
        }
      ],
      "name": "quoteSendString",
      "outputs": [
        {
          "components": [
            {
              "internalType": "uint256",
              "name": "nativeFee",
              "type": "uint256"
            },
            {
              "internalType": "uint256",
              "name": "lzTokenFee",
              "type": "uint256"
            }
          ],
          "internalType": "struct MessagingFee",
          "name": "fee",
          "type": "tuple"
        }
      ],
      "stateMutability": "view",
      "type": "function"
    },
    {
      "inputs": [
        {
          "internalType": "uint32",
          "name": "",
          "type": "uint32"
        }
      ],
      "name": "remoteExecutors",
      "outputs": [
        {
          "internalType": "address",
          "name": "",
          "type": "address"
        }
      ],
      "stateMutability": "view",
      "type": "function"
    },
    {
      "inputs": [],
      "name": "renounceOwnership",
      "outputs": [],
      "stateMutability": "nonpayable",
      "type": "function"
    },
    {
      "inputs": [
        {
          "internalType": "uint32",
          "name": "_dstEid",
          "type": "uint32"
        },
        {
          "internalType": "string",
          "name": "_string",
          "type": "string"
        },
        {
          "internalType": "bytes",
          "name": "_options",
          "type": "bytes"
        }
      ],
      "name": "sendString",
      "outputs": [],
      "stateMutability": "payable",
      "type": "function"
    },
    {
      "inputs": [
        {
          "internalType": "address",
          "name": "_delegate",
          "type": "address"
        }
      ],
      "name": "setDelegate",
      "outputs": [],
      "stateMutability": "nonpayable",
      "type": "function"
    },
    {
      "inputs": [
        {
          "components": [
            {
              "internalType": "uint32",
              "name": "eid",
              "type": "uint32"
            },
            {
              "internalType": "uint16",
              "name": "msgType",
              "type": "uint16"
            },
            {
              "internalType": "bytes",
              "name": "options",
              "type": "bytes"
            }
          ],
          "internalType": "struct EnforcedOptionParam[]",
          "name": "_enforcedOptions",
          "type": "tuple[]"
        }
      ],
      "name": "setEnforcedOptions",
      "outputs": [],
      "stateMutability": "nonpayable",
      "type": "function"
    },
    {
      "inputs": [
        {
          "internalType": "uint256",
          "name": "_votingPeriod",
          "type": "uint256"
        },
        {
          "internalType": "uint256",
          "name": "_quorumThreshold",
          "type": "uint256"
        },
        {
          "internalType": "uint256",
          "name": "_minVotingPower",
          "type": "uint256"
        }
      ],
      "name": "setGovernanceParams",
      "outputs": [],
      "stateMutability": "nonpayable",
      "type": "function"
    },
    {
      "inputs": [
        {
          "internalType": "uint32",
          "name": "_eid",
          "type": "uint32"
        },
        {
          "internalType": "bytes32",
          "name": "_peer",
          "type": "bytes32"
        }
      ],
      "name": "setPeer",
      "outputs": [],
      "stateMutability": "nonpayable",
      "type": "function"
    },
    {
      "inputs": [
        {
          "internalType": "uint32",
          "name": "chainId",
          "type": "uint32"
        },
        {
          "internalType": "address",
          "name": "executor",
          "type": "address"
        }
      ],
      "name": "setRemoteExecutor",
      "outputs": [],
      "stateMutability": "nonpayable",
      "type": "function"
    },
    {
      "inputs": [
        {
          "internalType": "uint32",
          "name": "",
          "type": "uint32"
        }
      ],
      "name": "supportedChains",
      "outputs": [
        {
          "internalType": "bool",
          "name": "",
          "type": "bool"
        }
      ],
      "stateMutability": "view",
      "type": "function"
    },
    {
      "inputs": [
        {
          "internalType": "uint256",
          "name": "",
          "type": "uint256"
        }
      ],
      "name": "supportedChainsList",
      "outputs": [
        {
          "internalType": "uint32",
          "name": "",
          "type": "uint32"
        }
      ],
      "stateMutability": "view",
      "type": "function"
    },
    {
      "inputs": [],
      "name": "totalVotingPower",
      "outputs": [
        {
          "internalType": "uint256",
          "name": "",
          "type": "uint256"
        }
      ],
      "stateMutability": "view",
      "type": "function"
    },
    {
      "inputs": [
        {
          "internalType": "address",
          "name": "newOwner",
          "type": "address"
        }
      ],
      "name": "transferOwnership",
      "outputs": [],
      "stateMutability": "nonpayable",
      "type": "function"
    },
    {
      "inputs": [
        {
          "internalType": "address",
          "name": "account",
          "type": "address"
        },
        {
          "internalType": "uint256",
          "name": "power",
          "type": "uint256"
        }
      ],
      "name": "updateVotingPower",
      "outputs": [],
      "stateMutability": "nonpayable",
      "type": "function"
    },
    {
      "inputs": [
        {
          "internalType": "uint256",
          "name": "proposalId",
          "type": "uint256"
        },
        {
          "internalType": "enum OmniDaoController.VoteType",
          "name": "voteType",
          "type": "uint8"
        }
      ],
      "name": "vote",
      "outputs": [],
      "stateMutability": "nonpayable",
      "type": "function"
    },
    {
      "inputs": [
        {
          "internalType": "uint256",
          "name": "",
          "type": "uint256"
        },
        {
          "internalType": "address",
          "name": "",
          "type": "address"
        }
      ],
      "name": "votes",
      "outputs": [
        {
          "internalType": "enum OmniDaoController.VoteType",
          "name": "",
          "type": "uint8"
        }
      ],
      "stateMutability": "view",
      "type": "function"
    },
    {
      "inputs": [],
      "name": "votingPeriod",
      "outputs": [
        {
          "internalType": "uint256",
          "name": "",
          "type": "uint256"
        }
      ],
      "stateMutability": "view",
      "type": "function"
    },
    {
      "inputs": [
        {
          "internalType": "address",
          "name": "",
          "type": "address"
        }
      ],
      "name": "votingPower",
      "outputs": [
        {
          "internalType": "uint256",
          "name": "",
          "type": "uint256"
        }
      ],
      "stateMutability": "view",
      "type": "function"
    },
    {
      "stateMutability": "payable",
      "type": "receive"
    }
  ],
  "transactionHash": "0xf63f7302026c784c6144843c223915e3a11da53f9881ed17f4c9be36d29f3dbf",
  "args": [
    "0x6EDCE65403992e310A62460808c4b910D972f10f",
    "0x23f5DC1Ef0Ef3D2897fbf8F6cCDc23F462625A62"
  ],
  "numDeployments": 1,
  "solcInputHash": "3ef963325486120aa77f171fde2b959f",
  "bytecode": "0x60a06040523480156200001157600080fd5b50604051620047e3380380620047e3833981016040819052620000349162000182565b81818181806001600160a01b0381166200006857604051631e4fbdf760e01b81526000600482015260240160405180910390fd5b620000738162000115565b506001600160a01b038083166080528116620000a257604051632d618d8160e21b815260040160405180910390fd5b60805160405163ca5eb5e160e01b81526001600160a01b0383811660048301529091169063ca5eb5e190602401600060405180830381600087803b158015620000ea57600080fd5b505af1158015620000ff573d6000803e3d6000fd5b5050600160035550620001ba9650505050505050565b600080546001600160a01b038381166001600160a01b0319831681178455604051919092169283917f8be0079c531659141344cd1fd0a4f28419497f9722a3daafe3b4186f6b6457e09190a35050565b80516001600160a01b03811681146200017d57600080fd5b919050565b600080604083850312156200019657600080fd5b620001a18362000165565b9150620001b16020840162000165565b90509250929050565b6080516145dc620002076000396000818161048f01528181610d37015281816111de01528181611c6e015281816127f401528181612d4c01528181612eea0152612fa301526145dc6000f3fe6080604052600436106102815760003560e01c8063943e82161161014f578063ca5eb5e1116100c1578063eba007071161007a578063eba007071461087f578063ee99f60b1461089f578063f2fde38b146108d4578063f5ac8a3c146108f4578063ff7bd03d14610914578063ffd8fc791461093457600080fd5b8063ca5eb5e114610779578063d23254b414610799578063d3b4866e146107e1578063d65aecb11461081c578063da35c66414610849578063eadc29c71461085f57600080fd5b8063bb0b6a5311610113578063bb0b6a531461066c578063bb4d443614610699578063bc70b354146106cf578063c07473f6146106ef578063c67909901461071c578063c7f758a81461074c57600080fd5b8063943e8216146105c257806394dadf5c146105e2578063a7c504a814610602578063b187bd2614610632578063b98bd0701461064c57600080fd5b80634a4e3bd5116101f357806370a82cae116101ac57806370a82cae146104ff578063715018a6146105215780637b7a91dd146105365780637d25a05e1461054c57806382413eac146105845780638da5cb5b146105a457600080fd5b80634a4e3bd51461042657806351858e271461043b5780635535d461146104505780635e280f111461047d578063639ab0ae146104c9578063671b3793146104e957600080fd5b806317442b701161024557806317442b701461032e5780631f5e133414610350578063248514dd146103785780633400288b146103b857806336ef9620146103d857806343859632146103eb57600080fd5b8063013cf08b1461028d57806302a251a3146102cc5780630d61b519146102f0578063120ea2021461030557806313137d651461031b57600080fd5b3661028857005b600080fd5b34801561029957600080fd5b506102ad6102a83660046133d1565b61096a565b6040516102c39a99989796959493929190613464565b60405180910390f35b3480156102d857600080fd5b506102e2600d5481565b6040519081526020016102c3565b6103036102fe3660046133d1565b610adf565b005b34801561031157600080fd5b506102e2600e5481565b610303610329366004613552565b610d35565b34801561033a57600080fd5b50604080516001815260026020820152016102c3565b34801561035c57600080fd5b50610365600181565b60405161ffff90911681526020016102c3565b34801561038457600080fd5b506103a861039336600461360a565b60086020526000908152604090205460ff1681565b60405190151581526020016102c3565b3480156103c457600080fd5b506103036103d3366004613625565b610df0565b6103036103e636600461364f565b610e06565b3480156103f757600080fd5b506103a86104063660046136cf565b600660209081526000928352604080842090915290825290205460ff1681565b34801561043257600080fd5b50610303610e5a565b34801561044757600080fd5b50610303610f93565b34801561045c57600080fd5b5061047061046b366004613711565b6110d7565b6040516102c39190613744565b34801561048957600080fd5b506104b17f000000000000000000000000000000000000000000000000000000000000000081565b6040516001600160a01b0390911681526020016102c3565b3480156104d557600080fd5b506103036104e4366004613757565b61117c565b3480156104f557600080fd5b506102e260105481565b34801561050b57600080fd5b50610514611192565b6040516102c391906137c5565b34801561052d57600080fd5b506103036111a1565b34801561054257600080fd5b506102e2600f5481565b34801561055857600080fd5b5061056c610567366004613625565b6111b3565b6040516001600160401b0390911681526020016102c3565b34801561059057600080fd5b506103a861059f3660046137d8565b61125a565b3480156105b057600080fd5b506000546001600160a01b03166104b1565b3480156105ce57600080fd5b506103036105dd36600461383e565b61126f565b3480156105ee57600080fd5b506103036105fd366004613a3c565b6114d9565b34801561060e57600080fd5b506103a861061d3660046133d1565b600a6020526000908152604090205460ff1681565b34801561063e57600080fd5b506011546103a89060ff1681565b34801561065857600080fd5b50610303610667366004613b01565b6117d0565b34801561067857600080fd5b506102e261068736600461360a565b60016020526000908152604090205481565b3480156106a557600080fd5b506102e26106b4366004613b75565b6001600160a01b031660009081526007602052604090205490565b3480156106db57600080fd5b506104706106ea366004613b99565b6117ea565b3480156106fb57600080fd5b506102e261070a366004613b75565b60076020526000908152604090205481565b34801561072857600080fd5b506103a8610737366004613b75565b60126020526000908152604090205460ff1681565b34801561075857600080fd5b5061076c6107673660046133d1565b611992565b6040516102c39190613c2a565b34801561078557600080fd5b50610303610794366004613b75565b611c47565b3480156107a557600080fd5b506107d46107b43660046136cf565b600560209081526000928352604080842090915290825290205460ff1681565b6040516102c39190613d1c565b3480156107ed57600080fd5b506108016107fc366004613d46565b611ccd565b604080518251815260209283015192810192909252016102c3565b34801561082857600080fd5b506102e261083736600461360a565b600b6020526000908152604090205481565b34801561085557600080fd5b506102e2600c5481565b34801561086b57600080fd5b5061030361087a366004613dd5565b611d2b565b34801561088b57600080fd5b5061080161089a366004613df3565b611db2565b3480156108ab57600080fd5b506108bf6108ba3660046133d1565b611ddb565b60405163ffffffff90911681526020016102c3565b3480156108e057600080fd5b506103036108ef366004613b75565b611e15565b34801561090057600080fd5b5061030361090f366004613e77565b611e50565b34801561092057600080fd5b506103a861092f366004613ea3565b611f4a565b34801561094057600080fd5b506104b161094f36600461360a565b6009602052600090815260409020546001600160a01b031681565b60046020526000908152604090208054600182015460028301805492936001600160a01b039092169261099c90613ebf565b80601f01602080910402602001604051908101604052809291908181526020018280546109c890613ebf565b8015610a155780601f106109ea57610100808354040283529160200191610a15565b820191906000526020600020905b8154815290600101906020018083116109f857829003601f168201915b5050506003840154600485015460058601546006870154600788015460088901805498999598949750929550909360ff8083169461010090930416929091610a5c90613ebf565b80601f0160208091040260200160405190810160405280929190818152602001828054610a8890613ebf565b8015610ad55780601f10610aaa57610100808354040283529160200191610ad5565b820191906000526020600020905b815481529060010190602001808311610ab857829003601f168201915b505050505090508a565b610ae7611f80565b60008181526004602052604081208054909103610b455760405162461bcd60e51b8152602060048201526017602482015276141c9bdc1bdcd85b08191bd95cc81b9bdd08195e1a5cdd604a1b60448201526064015b60405180910390fd5b80600501544211610b985760405162461bcd60e51b815260206004820152601760248201527f566f74696e6720706572696f64206e6f7420656e6465640000000000000000006044820152606401610b3c565b600781015460ff1615610be05760405162461bcd60e51b815260206004820152601060248201526f105b1c9958591e48195e1958dd5d195960821b6044820152606401610b3c565b610be982611faa565b610c2d5760405162461bcd60e51b815260206004820152601560248201527450726f706f73616c20646964206e6f74207061737360581b6044820152606401610b3c565b60078101805460ff1916600117905560088101805460009190610c4f90613ebf565b90501115610cec57610cec816008018054610c6990613ebf565b80601f0160208091040260200160405190810160405280929190818152602001828054610c9590613ebf565b8015610ce25780601f10610cb757610100808354040283529160200191610ce2565b820191906000526020600020905b815481529060010190602001808311610cc557829003601f168201915b50505050506122a9565b6000610cf883836122e2565b60405190915083907f712ae1383f79ac853f8d882153778e0260ef8f03b504e2866e0593e04d2b291f90600090a25050610d326001600355565b50565b7f00000000000000000000000000000000000000000000000000000000000000006001600160a01b03163314610d80576040516391ac5e4f60e01b8152336004820152602401610b3c565b60208701803590610d9a90610d95908a61360a565b61262f565b14610dd857610dac602088018861360a565b60405163309afaf360e21b815263ffffffff909116600482015260208801356024820152604401610b3c565b610de78787878787878761266b565b50505050505050565b610df861273f565b610e02828261276c565b5050565b60008484604051602001610e1b929190613f1c565b6040516020818303038152906040529050610de78682610e3e89600188886117ea565b60405180604001604052803481526020016000815250336127c1565b60115460ff16610e995760405162461bcd60e51b815260206004820152600a602482015269139bdd081c185d5cd95960b21b6044820152606401610b3c565b3360009081526012602052604090205460ff16610ef45760405162461bcd60e51b81526020600482015260196024820152782737ba1030b71032b6b2b933b2b731bc9033bab0b93234b0b760391b6044820152606401610b3c565b6011805460ff19169055604080518082018252600b81526a155394105554d157d0531360aa1b6020808301919091528251808401909352601b83527f456d657267656e6379207061757365206465616374697661746564000000000090830152610f5d916128cc565b604051600081527f0e2fb031ee032dc02d8011dc50b816eb450cf856abd8261680dac74f72165bd29060200160405180910390a1565b60115460ff1615610fd75760405162461bcd60e51b815260206004820152600e60248201526d105b1c9958591e481c185d5cd95960921b6044820152606401610b3c565b3360009081526012602052604090205460ff166110325760405162461bcd60e51b81526020600482015260196024820152782737ba1030b71032b6b2b933b2b731bc9033bab0b93234b0b760391b6044820152606401610b3c565b6011805460ff191660019081179091556040519081527f0e2fb031ee032dc02d8011dc50b816eb450cf856abd8261680dac74f72165bd29060200160405180910390a16110d56040518060400160405280600981526020016814105554d157d0531360ba1b8152506040518060400160405280601981526020017f456d657267656e637920706175736520616374697661746564000000000000008152506128cc565b565b6002602090815260009283526040808420909152908252902080546110fb90613ebf565b80601f016020809104026020016040519081016040528092919081815260200182805461112790613ebf565b80156111745780601f1061114957610100808354040283529160200191611174565b820191906000526020600020905b81548152906001019060200180831161115757829003601f168201915b505050505081565b61118461273f565b600d92909255600f55600e55565b606061119c6129fa565b905090565b6111a961273f565b6110d56000612bb3565b604051630271b5cd60e61b815230600482015263ffffffff83166024820152604481018290526000907f00000000000000000000000000000000000000000000000000000000000000006001600160a01b031690639c6d734090606401602060405180830381865afa15801561122d573d6000803e3d6000fd5b505050506040513d601f19601f820116820180604052508101906112519190613f47565b90505b92915050565b6001600160a01b03811630145b949350505050565b600082815260046020526040812080549091036112c85760405162461bcd60e51b8152602060048201526017602482015276141c9bdc1bdcd85b08191bd95cc81b9bdd08195e1a5cdd604a1b6044820152606401610b3c565b80600501544211156113125760405162461bcd60e51b8152602060048201526013602482015272159bdd1a5b99c81c195c9a5bd908195b991959606a1b6044820152606401610b3c565b600083815260066020908152604080832033845290915290205460ff161561136c5760405162461bcd60e51b815260206004820152600d60248201526c105b1c9958591e481d9bdd1959609a1b6044820152606401610b3c565b336000908152600760205260409020546113ba5760405162461bcd60e51b815260206004820152600f60248201526e2737903b37ba34b733903837bbb2b960891b6044820152606401610b3c565b6000838152600660209081526040808320338085529083528184208054600160ff199182168117909255888652600585528386209286529190935292208054859391929116908360028111156114125761141261343a565b0217905550336000908152600760205260408120549083600281111561143a5761143a61343a565b0361145e57808260030160008282546114539190613f78565b909155506114919050565b60018360028111156114725761147261343a565b03611491578082600401600082825461148b9190613f78565b90915550505b336001600160a01b0316847feba4866100b822f0f391e610e7edfab790b9e8766c0012733c26b2f1858e8dd7856040516114cb9190613d1c565b60405180910390a350505050565b600e5433600090815260076020526040902054101561153a5760405162461bcd60e51b815260206004820152601960248201527f496e73756666696369656e7420766f74696e6720706f776572000000000000006044820152606401610b3c565b80518251146115835760405162461bcd60e51b8152602060048201526015602482015274082e4e4c2f240d8cadccee8d040dad2e6dac2e8c6d605b1b6044820152606401610b3c565b60115460ff16156115d65760405162461bcd60e51b815260206004820181905260248201527f436f6e74726163742069732070617573656420666f7220656d657267656e63796044820152606401610b3c565b6000600c600081546115e790613f8b565b9190508190559050604051806101800160405280828152602001336001600160a01b031681526020018781526020016000815260200160008152602001600d54426116329190613f78565b8152426020820152600060408201526060018660058111156116565761165661343a565b815260208082018790526040808301879052606090920185905260008481526004825282902083518155908301516001820180546001600160a01b0319166001600160a01b039092169190911790559082015160028201906116b89082613ff5565b50606082015181600301556080820151816004015560a0820151816005015560c0820151816006015560e08201518160070160006101000a81548160ff0219169083151502179055506101008201518160070160016101000a81548160ff0219169083600581111561172c5761172c61343a565b021790555061012082015160088201906117469082613ff5565b506101408201518051611763916009840191602090910190613212565b50610160820151805161178091600a8401916020909101906132bd565b50905050336001600160a01b0316817fe0269f7953e70365e80e614e4efe7d4bede59b7f5ad80982ea4064c97ee6f4ef88886040516117c09291906140b4565b60405180910390a3505050505050565b6117d861273f565b610e026117e582846140d6565b612c03565b63ffffffff8416600090815260026020908152604080832061ffff8716845290915281208054606092919061181e90613ebf565b80601f016020809104026020016040519081016040528092919081815260200182805461184a90613ebf565b80156118975780601f1061186c57610100808354040283529160200191611897565b820191906000526020600020905b81548152906001019060200180831161187a57829003601f168201915b5050505050905080516000036118e75783838080601f0160208091040260200160405190810160405280939291908181526020018383808284376000920191909152509294506112679350505050565b60008390036118f7579050611267565b600283106119755761193e84848080601f016020809104026020016040519081016040528093929190818152602001838380828437600092019190915250612d0a92505050565b8061194c846002818861419f565b60405160200161195e939291906141c9565b604051602081830303815290604052915050611267565b8383604051639a6d49cd60e01b8152600401610b3c929190613f1c565b61199a6132f8565b6000828152600460209081526040918290208251610180810184528154815260018201546001600160a01b03169281019290925260028101805492939192918401916119e590613ebf565b80601f0160208091040260200160405190810160405280929190818152602001828054611a1190613ebf565b8015611a5e5780601f10611a3357610100808354040283529160200191611a5e565b820191906000526020600020905b815481529060010190602001808311611a4157829003601f168201915b50505091835250506003820154602082015260048201546040820152600580830154606083015260068301546080830152600783015460ff808216151560a085015260c0909301926101009091041690811115611abd57611abd61343a565b6005811115611ace57611ace61343a565b8152602001600882018054611ae290613ebf565b80601f0160208091040260200160405190810160405280929190818152602001828054611b0e90613ebf565b8015611b5b5780601f10611b3057610100808354040283529160200191611b5b565b820191906000526020600020905b815481529060010190602001808311611b3e57829003601f168201915b5050505050815260200160098201805480602002602001604051908101604052809291908181526020018280548015611bdf57602002820191906000526020600020906000905b82829054906101000a900463ffffffff1663ffffffff1681526020019060040190602082600301049283019260010382029150808411611ba25790505b50505050508152602001600a8201805480602002602001604051908101604052809291908181526020018280548015611c3757602002820191906000526020600020905b815481526020019060010190808311611c23575b5050505050815250509050919050565b611c4f61273f565b60405163ca5eb5e160e01b81526001600160a01b0382811660048301527f0000000000000000000000000000000000000000000000000000000000000000169063ca5eb5e190602401600060405180830381600087803b158015611cb257600080fd5b505af1158015611cc6573d6000803e3d6000fd5b5050505050565b604080518082019091526000808252602082015260008686604051602001611cf6929190613f1c565b6040516020818303038152906040529050611d1f8882611d198b60018a8a6117ea565b86612d36565b98975050505050505050565b611d3361273f565b6001600160a01b03821660009081526007602052604090208054908290556010548290611d619083906141f1565b611d6b9190613f78565b6010556040518281526001600160a01b038416907f36ac285914fb5fd49dd16e36cab1e696eda836080e3a61ff587c8671cbbdcab9906020015b60405180910390a2505050565b6040805180820190915260008082526020820152611dd285858585612d36565b95945050505050565b60138181548110611deb57600080fd5b9060005260206000209060089182820401919006600402915054906101000a900463ffffffff1681565b611e1d61273f565b6001600160a01b038116611e4757604051631e4fbdf760e01b815260006004820152602401610b3c565b610d3281612bb3565b611e5861273f565b63ffffffff821660009081526008602052604090205460ff16611ed057601380546001810182556000919091527f66de8ffda797e3de9c05e8fc57b3bf0ec28a930d40b0d285d93c06501cf6a0906008820401805460079092166004026101000a63ffffffff81810219909316928516029190911790555b63ffffffff8216600081815260096020908152604080832080546001600160a01b0319166001600160a01b0387169081179091556008835292819020805460ff19166001179055519182527f817a84aa58f747e6115e5cead35d8c3da7cd889b812458e8215c6cabc66b29b9910160405180910390a25050565b6000602082018035906001908390611f62908661360a565b63ffffffff1681526020810191909152604001600020541492915050565b600260035403611fa357604051633ee5aeb560e01b815260040160405180910390fd5b6002600355565b60008181526004602090815260408083208151610180810183528154815260018201546001600160a01b03169381019390935260028101805485949384019190611ff390613ebf565b80601f016020809104026020016040519081016040528092919081815260200182805461201f90613ebf565b801561206c5780601f106120415761010080835404028352916020019161206c565b820191906000526020600020905b81548152906001019060200180831161204f57829003601f168201915b50505091835250506003820154602082015260048201546040820152600580830154606083015260068301546080830152600783015460ff808216151560a085015260c09093019261010090910416908111156120cb576120cb61343a565b60058111156120dc576120dc61343a565b81526020016008820180546120f090613ebf565b80601f016020809104026020016040519081016040528092919081815260200182805461211c90613ebf565b80156121695780601f1061213e57610100808354040283529160200191612169565b820191906000526020600020905b81548152906001019060200180831161214c57829003601f168201915b50505050508152602001600982018054806020026020016040519081016040528092919081815260200182805480156121ed57602002820191906000526020600020906000905b82829054906101000a900463ffffffff1663ffffffff16815260200190600401906020826003010492830192600103820291508084116121b05790505b50505050508152602001600a820180548060200260200160405190810160405280929190818152602001828054801561224557602002820191906000526020600020905b815481526020019060010190808311612231575b50505050508152505090506000816080015182606001516122669190613f78565b9050612710600f5460105461227b9190614204565b612285919061421b565b811015612296575060009392505050565b5060808101516060909101511192915050565b7e2317644f88d7168f883c6c2120986168c3728dfe50f8413d18b7da20559c95816040516122d79190613744565b60405180910390a150565b600080341161232b5760405162461bcd60e51b81526020600482015260156024820152744e6f2066756e647320746f20636f7665722067617360581b6044820152606401610b3c565b6009820154600061233c823461421b565b905060005b828110156126235760008560090182815481106123605761236061423d565b6000918252602080832060088084049091015460079093166004026101000a90920463ffffffff1680845291905260409091205490915060ff166123da5760405162461bcd60e51b81526020600482015260116024820152702ab739bab83837b93a32b21031b430b4b760791b6044820152606401610b3c565b63ffffffff81166000908152600960205260409020546001600160a01b03166124455760405162461bcd60e51b815260206004820152601b60248201527f4e6f206578656375746f72206f6e2074617267657420636861696e00000000006044820152606401610b3c565b6000878760070160019054906101000a900460ff1688600a01858154811061246f5761246f61423d565b90600052602060002001544260405160200161248e9493929190614253565b60408051808303601f1901815282825260208084018c905260e086901b6001600160e01b031916848401526044808501889052835180860390910181526064850184528051910120600360f01b60848501528251606681860301815260869094019092529250906000906125149061250f9062030d409084905b9190612e0e565b612e76565b604080518082019091528781526000602082015290915061253885858484336127c1565b506000838152600a60209081526040808320805460ff1916600117905563ffffffff88168352600b909152812080549161257183613f8b565b909155505063ffffffff8516600081815260096020526040902054600a8c01805486936001600160a01b0390931692917f8defb64e28273256dd7cf7bf679f1ed1e72cbcf501586d54421e18193bcfe1fc918b9081106125d3576125d361423d565b90600052602060002001546040516020016125f091815260200190565b60408051601f198184030181529082905261260a91613744565b60405180910390a4505060019093019250612341915050565b50600195945050505050565b63ffffffff8116600090815260016020526040812054806112545760405163f6ff4fb760e01b815263ffffffff84166004820152602401610b3c565b600060098161267d60208b018b61360a565b63ffffffff1681526020810191909152604001600020546001600160a01b0316148015906126de5750600960006126b760208a018a61360a565b63ffffffff168152602080820192909252604001600020546001600160a01b031690880135145b6127205760405162461bcd60e51b81526020600482015260136024820152722ab730baba3437b934bd32b21039b2b73232b960691b6044820152606401610b3c565b6000808061273087890189614279565b50505050505050505050505050565b6000546001600160a01b031633146110d55760405163118cdaa760e01b8152336004820152602401610b3c565b63ffffffff8216600081815260016020908152604091829020849055815192835282018390527f238399d427b947898edb290f5ff0f9109849b1c3ba196a42e35f00c50a54b98b910160405180910390a15050565b6127c9613375565b60006127d88460000151612ebe565b6020850151909150156127f2576127f28460200151612ee6565b7f00000000000000000000000000000000000000000000000000000000000000006001600160a01b0316632637a450826040518060a001604052808b63ffffffff1681526020016128428c61262f565b81526020018a815260200189815260200160008960200151111515815250866040518463ffffffff1660e01b815260040161287e9291906142cf565b60806040518083038185885af115801561289c573d6000803e3d6000fd5b50505050506040513d601f19601f820116820180604052508101906128c19190614396565b979650505050505050565b60006128d66129fa565b905060005b81518110156129be5760008282815181106128f8576128f861423d565b60209081029190910181015163ffffffff8116600090815260099092526040909120549091506001600160a01b0316156129b5576000858542604051602001612943939291906143de565b60405160208183030381529060405290506000612985620186a0600061250860408051600360f01b602082015281516002818303018152602290910190915290565b6040805180820190915266038d7ea4c680008152600060208201529091506129b084848484336127c1565b505050505b506001016128db565b50336001600160a01b03167fe643de8fbc44e4eb0d14c020f6aed5d79584bbb717e86a6a49d9b57b2650c9798483604051611da5929190614434565b6013546060906000906001600160401b03811115612a1a57612a1a613867565b604051908082528060200260200182016040528015612a43578160200160208202803683370190505b5090506000805b601354811015612b1057600060138281548110612a6957612a6961423d565b6000918252602080832060088084049091015460079093166004026101000a90920463ffffffff1680845291905260409091205490915060ff168015612acc575063ffffffff81166000908152600960205260409020546001600160a01b031615155b15612b075780848481518110612ae457612ae461423d565b63ffffffff9092166020928302919091019091015282612b0381613f8b565b9350505b50600101612a4a565b506000816001600160401b03811115612b2b57612b2b613867565b604051908082528060200260200182016040528015612b54578160200160208202803683370190505b50905060005b82811015612bab57838181518110612b7457612b7461423d565b6020026020010151828281518110612b8e57612b8e61423d565b63ffffffff90921660209283029190910190910152600101612b5a565b509392505050565b600080546001600160a01b038381166001600160a01b0319831681178455604051919092169283917f8be0079c531659141344cd1fd0a4f28419497f9722a3daafe3b4186f6b6457e09190a35050565b60005b8151811015612cda57612c35828281518110612c2457612c2461423d565b602002602001015160400151612d0a565b818181518110612c4757612c4761423d565b60200260200101516040015160026000848481518110612c6957612c6961423d565b60200260200101516000015163ffffffff1663ffffffff1681526020019081526020016000206000848481518110612ca357612ca361423d565b60200260200101516020015161ffff1661ffff1681526020019081526020016000209081612cd19190613ff5565b50600101612c06565b507fbe4864a8e820971c0247f5992e2da559595f7bf076a21cb5928d443d2a13b674816040516122d79190614459565b600281015161ffff8116600314610e025781604051639a6d49cd60e01b8152600401610b3c9190613744565b60408051808201909152600080825260208201527f00000000000000000000000000000000000000000000000000000000000000006001600160a01b031663ddc28c586040518060a001604052808863ffffffff168152602001612d998961262f565b8152602001878152602001868152602001851515815250306040518363ffffffff1660e01b8152600401612dce9291906142cf565b6040805180830381865afa158015612dea573d6000803e3d6000fd5b505050506040513d601f19601f82011682018060405250810190611dd291906144e4565b6060836003612e1e826000612fc8565b61ffff1614612e5257612e32816000612fc8565b604051633a51740d60e01b815261ffff9091166004820152602401610b3c565b6000612e5e8585613025565b9050612e6c866001836130a7565b9695505050505050565b6060816003612e86826000612fc8565b61ffff1614612e9a57612e32816000612fc8565b612eb5836004604051806020016040528060008152506130a7565b91505b50919050565b6000813414612ee2576040516304fb820960e51b8152346004820152602401610b3c565b5090565b60007f00000000000000000000000000000000000000000000000000000000000000006001600160a01b031663e4fe1d946040518163ffffffff1660e01b8152600401602060405180830381865afa158015612f46573d6000803e3d6000fd5b505050506040513d601f19601f82011682018060405250810190612f6a9190614500565b90506001600160a01b038116612f93576040516329b99a9560e11b815260040160405180910390fd5b610e026001600160a01b038216337f000000000000000000000000000000000000000000000000000000000000000085613112565b6000612fd5826002613f78565b8351101561301c5760405162461bcd60e51b8152602060048201526014602482015273746f55696e7431365f6f75744f66426f756e647360601b6044820152606401610b3c565b50016002015190565b60606fffffffffffffffffffffffffffffffff82161561307657604080516001600160801b0319608086811b8216602084015285901b16603082015201604051602081830303815290604052611251565b6040516001600160801b0319608085901b166020820152603001604051602081830303815290604052905092915050565b60608360036130b7826000612fc8565b61ffff16146130cb57612e32816000612fc8565b8460016130d88551613172565b6130e390600161451d565b86866040516020016130f995949392919061453f565b6040516020818303038152906040529150509392505050565b604080516001600160a01b0385811660248301528416604482015260648082018490528251808303909101815260849091019091526020810180516001600160e01b03166323b872dd60e01b17905261316c9085906131a1565b50505050565b600061ffff821115612ee2576040516306dfcc6560e41b81526010600482015260248101839052604401610b3c565b600080602060008451602086016000885af1806131c4576040513d6000823e3d81fd5b50506000513d915081156131dc5780600114156131e9565b6001600160a01b0384163b155b1561316c57604051635274afe760e01b81526001600160a01b0385166004820152602401610b3c565b828054828255906000526020600020906007016008900481019282156132b15791602002820160005b8382111561327f57835183826101000a81548163ffffffff021916908363ffffffff160217905550926020019260040160208160030104928301926001030261323b565b80156132af5782816101000a81549063ffffffff021916905560040160208160030104928301926001030261327f565b505b50612ee29291506133bc565b8280548282559060005260206000209081019282156132b1579160200282015b828111156132b15782518255916020019190600101906132dd565b6040518061018001604052806000815260200160006001600160a01b0316815260200160608152602001600081526020016000815260200160008152602001600081526020016000151581526020016000600581111561335a5761335a61343a565b81526020016060815260200160608152602001606081525090565b60405180606001604052806000801916815260200160006001600160401b031681526020016133b7604051806040016040528060008152602001600081525090565b905290565b5b80821115612ee257600081556001016133bd565b6000602082840312156133e357600080fd5b5035919050565b60005b838110156134055781810151838201526020016133ed565b50506000910152565b600081518084526134268160208601602086016133ea565b601f01601f19169290920160200192915050565b634e487b7160e01b600052602160045260246000fd5b600681106134605761346061343a565b9052565b8a81526001600160a01b038a1660208201526101406040820181905260009061348f8382018c61340e565b90508960608401528860808401528760a08401528660c084015285151560e08401526134bf610100840186613450565b8281036101208401526134d2818561340e565b9d9c50505050505050505050505050565b600060608284031215612eb857600080fd5b60008083601f84011261350757600080fd5b5081356001600160401b0381111561351e57600080fd5b60208301915083602082850101111561353657600080fd5b9250929050565b6001600160a01b0381168114610d3257600080fd5b600080600080600080600060e0888a03121561356d57600080fd5b61357789896134e3565b96506060880135955060808801356001600160401b038082111561359a57600080fd5b6135a68b838c016134f5565b909750955060a08a013591506135bb8261353d565b90935060c089013590808211156135d157600080fd5b506135de8a828b016134f5565b989b979a50959850939692959293505050565b803563ffffffff8116811461360557600080fd5b919050565b60006020828403121561361c57600080fd5b611251826135f1565b6000806040838503121561363857600080fd5b613641836135f1565b946020939093013593505050565b60008060008060006060868803121561366757600080fd5b613670866135f1565b945060208601356001600160401b038082111561368c57600080fd5b61369889838a016134f5565b909650945060408801359150808211156136b157600080fd5b506136be888289016134f5565b969995985093965092949392505050565b600080604083850312156136e257600080fd5b8235915060208301356136f48161353d565b809150509250929050565b803561ffff8116811461360557600080fd5b6000806040838503121561372457600080fd5b61372d836135f1565b915061373b602084016136ff565b90509250929050565b602081526000611251602083018461340e565b60008060006060848603121561376c57600080fd5b505081359360208301359350604090920135919050565b60008151808452602080850194506020840160005b838110156137ba57815163ffffffff1687529582019590820190600101613798565b509495945050505050565b6020815260006112516020830184613783565b60008060008060a085870312156137ee57600080fd5b6137f886866134e3565b935060608501356001600160401b0381111561381357600080fd5b61381f878288016134f5565b90945092505060808501356138338161353d565b939692955090935050565b6000806040838503121561385157600080fd5b823591506020830135600381106136f457600080fd5b634e487b7160e01b600052604160045260246000fd5b604051606081016001600160401b038111828210171561389f5761389f613867565b60405290565b604051601f8201601f191681016001600160401b03811182821017156138cd576138cd613867565b604052919050565b600082601f8301126138e657600080fd5b81356001600160401b038111156138ff576138ff613867565b613912601f8201601f19166020016138a5565b81815284602083860101111561392757600080fd5b816020850160208301376000918101602001919091529392505050565b60006001600160401b0382111561395d5761395d613867565b5060051b60200190565b600082601f83011261397857600080fd5b8135602061398d61398883613944565b6138a5565b8083825260208201915060208460051b8701019350868411156139af57600080fd5b602086015b848110156139d2576139c5816135f1565b83529183019183016139b4565b509695505050505050565b600082601f8301126139ee57600080fd5b813560206139fe61398883613944565b8083825260208201915060208460051b870101935086841115613a2057600080fd5b602086015b848110156139d25780358352918301918301613a25565b600080600080600060a08688031215613a5457600080fd5b85356001600160401b0380821115613a6b57600080fd5b613a7789838a016138d5565b96506020880135915060068210613a8d57600080fd5b90945060408701359080821115613aa357600080fd5b613aaf89838a016138d5565b94506060880135915080821115613ac557600080fd5b613ad189838a01613967565b93506080880135915080821115613ae757600080fd5b50613af4888289016139dd565b9150509295509295909350565b60008060208385031215613b1457600080fd5b82356001600160401b0380821115613b2b57600080fd5b818501915085601f830112613b3f57600080fd5b813581811115613b4e57600080fd5b8660208260051b8501011115613b6357600080fd5b60209290920196919550909350505050565b600060208284031215613b8757600080fd5b8135613b928161353d565b9392505050565b60008060008060608587031215613baf57600080fd5b613bb8856135f1565b9350613bc6602086016136ff565b925060408501356001600160401b03811115613be157600080fd5b613bed878288016134f5565b95989497509550505050565b60008151808452602080850194506020840160005b838110156137ba57815187529582019590820190600101613c0e565b602081528151602082015260006020830151613c5160408401826001600160a01b03169052565b506040830151610180806060850152613c6e6101a085018361340e565b915060608501516080850152608085015160a085015260a085015160c085015260c085015160e085015260e0850151610100613cad8187018315159052565b8601519050610120613cc186820183613450565b80870151915050601f19610140818786030181880152613ce1858461340e565b945080880151925050610160818786030181880152613d008584613783565b908801518782039092018488015293509050612e6c8382613bf9565b6020810160038310613d3057613d3061343a565b91905290565b8035801515811461360557600080fd5b60008060008060008060808789031215613d5f57600080fd5b613d68876135f1565b955060208701356001600160401b0380821115613d8457600080fd5b613d908a838b016134f5565b90975095506040890135915080821115613da957600080fd5b50613db689828a016134f5565b9094509250613dc9905060608801613d36565b90509295509295509295565b60008060408385031215613de857600080fd5b82356136418161353d565b60008060008060808587031215613e0957600080fd5b613e12856135f1565b935060208501356001600160401b0380821115613e2e57600080fd5b613e3a888389016138d5565b94506040870135915080821115613e5057600080fd5b50613e5d878288016138d5565b925050613e6c60608601613d36565b905092959194509250565b60008060408385031215613e8a57600080fd5b613e93836135f1565b915060208301356136f48161353d565b600060608284031215613eb557600080fd5b61125183836134e3565b600181811c90821680613ed357607f821691505b602082108103612eb857634e487b7160e01b600052602260045260246000fd5b81835281816020850137506000828201602090810191909152601f909101601f19169091010190565b602081526000611267602083018486613ef3565b80516001600160401b038116811461360557600080fd5b600060208284031215613f5957600080fd5b61125182613f30565b634e487b7160e01b600052601160045260246000fd5b8082018082111561125457611254613f62565b600060018201613f9d57613f9d613f62565b5060010190565b601f821115613ff0576000816000526020600020601f850160051c81016020861015613fcd5750805b601f850160051c820191505b81811015613fec57828155600101613fd9565b5050505b505050565b81516001600160401b0381111561400e5761400e613867565b6140228161401c8454613ebf565b84613fa4565b602080601f831160018114614057576000841561403f5750858301515b600019600386901b1c1916600185901b178555613fec565b600085815260208120601f198616915b8281101561408657888601518255948401946001909101908401614067565b50858210156140a45787850151600019600388901b60f8161c191681555b5050505050600190811b01905550565b6040815260006140c7604083018561340e565b9050613b926020830184613450565b60006140e461398884613944565b80848252602080830192508560051b85013681111561410257600080fd5b855b818110156141935780356001600160401b03808211156141245760008081fd5b81890191506060823603121561413a5760008081fd5b61414261387d565b61414b836135f1565b81526141588684016136ff565b86820152604080840135838111156141705760008081fd5b61417c368287016138d5565b918301919091525087525050938201938201614104565b50919695505050505050565b600080858511156141af57600080fd5b838611156141bc57600080fd5b5050820193919092039150565b600084516141db8184602089016133ea565b8201838582376000930192835250909392505050565b8181038181111561125457611254613f62565b808202811582820484141761125457611254613f62565b60008261423857634e487b7160e01b600052601260045260246000fd5b500490565b634e487b7160e01b600052603260045260246000fd5b848152608081016142676020830186613450565b60408201939093526060015292915050565b60008060006060848603121561428e57600080fd5b8335925061429e60208501613d36565b915060408401356001600160401b038111156142b957600080fd5b6142c5868287016138d5565b9150509250925092565b6040815263ffffffff8351166040820152602083015160608201526000604084015160a0608084015261430560e084018261340e565b90506060850151603f198483030160a0850152614322828261340e565b60809690960151151560c08501525050506001600160a01b039190911660209091015290565b60006040828403121561435a57600080fd5b604051604081018181106001600160401b038211171561437c5761437c613867565b604052825181526020928301519281019290925250919050565b6000608082840312156143a857600080fd5b6143b061387d565b825181526143c060208401613f30565b60208201526143d28460408501614348565b60408201529392505050565b608081526009608082015268454d455247454e435960b81b60a082015260c06020820152600061441160c083018661340e565b8281036040840152614423818661340e565b915050826060830152949350505050565b604081526000614447604083018561340e565b8281036020840152611dd28185613783565b600060208083018184528085518083526040925060408601915060408160051b87010184880160005b838110156144d657888303603f190185528151805163ffffffff1684528781015161ffff168885015286015160608785018190526144c28186018361340e565b968901969450505090860190600101614482565b509098975050505050505050565b6000604082840312156144f657600080fd5b6112518383614348565b60006020828403121561451257600080fd5b8151613b928161353d565b61ffff81811683821601908082111561453857614538613f62565b5092915050565b60008651614551818460208b016133ea565b6001600160f81b031960f888811b82169285019283526001600160f01b031960f089901b16600184015286901b16600382015283516145978160048401602088016133ea565b0160040197965050505050505056fea26469706673582212208810f97c9e724529238a900ea2fbb9990695f0cdee366cca3c6d8263c2a8497164736f6c63430008160033",
  "devdoc": {
    "errors": {
      "OwnableInvalidOwner(address)": [
        {
          "details": "The owner is not a valid owner account. (eg. `address(0)`)"
        }
      ],
      "OwnableUnauthorizedAccount(address)": [
        {
          "details": "The caller account is not authorized to perform an operation."
        }
      ],
      "ReentrancyGuardReentrantCall()": [
        {
          "details": "Unauthorized reentrant call."
        }
      ],
      "SafeCastOverflowedUintDowncast(uint8,uint256)": [
        {
          "details": "Value doesn't fit in an uint of `bits` size."
        }
      ],
      "SafeERC20FailedOperation(address)": [
        {
          "details": "An operation with an ERC-20 token failed."
        }
      ]
    },
    "kind": "dev",
    "methods": {
      "allowInitializePath((uint32,bytes32,uint64))": {
        "details": "This indicates to the endpoint that the OApp has enabled msgs for this particular path to be received.This defaults to assuming if a peer has been set, its initialized. Can be overridden by the OApp if there is other logic to determine this.",
        "params": {
          "origin": "The origin information containing the source endpoint and sender address."
        },
        "returns": {
          "_0": "Whether the path has been initialized."
        }
      },
      "combineOptions(uint32,uint16,bytes)": {
        "details": "If there is an enforced lzReceive option: - {gasLimit: 200k, msg.value: 1 ether} AND a caller supplies a lzReceive option: {gasLimit: 100k, msg.value: 0.5 ether} - The resulting options will be {gasLimit: 300k, msg.value: 1.5 ether} when the message is executed on the remote lzReceive() function.This presence of duplicated options is handled off-chain in the verifier/executor.",
        "params": {
          "_eid": "The endpoint ID.",
          "_extraOptions": "Additional options passed by the caller.",
          "_msgType": "The OAPP message type."
        },
        "returns": {
          "_0": "options The combination of caller specified options AND enforced options."
        }
      },
      "createProposal(string,uint8,bytes,uint32[],bytes32[])": {
        "params": {
          "description": "Human readable description",
          "executionData": "Local execution data (if any)",
          "proposalType": "Type of proposal",
          "remoteCallData": "Array of calldata for each target chain",
          "targetChainIds": "Array of chain IDs to execute on"
        }
      },
      "executeProposal(uint256)": {
        "params": {
          "proposalId": "ID of the proposal to execute"
        }
      },
      "getAllSupportedChains()": {
        "returns": {
          "_0": "uint32[] Array of supported chain IDs"
        }
      },
      "getProposal(uint256)": {
        "params": {
          "proposalId": "ID of the proposal to get"
        },
        "returns": {
          "_0": "Proposal struct"
        }
      },
      "getVotingPower(address)": {
        "params": {
          "account": "The account to get the voting power for"
        },
        "returns": {
          "_0": "uint256 The voting power for the account"
        }
      },
      "isComposeMsgSender((uint32,bytes32,uint64),bytes,address)": {
        "details": "_origin The origin information containing the source endpoint and sender address.  - srcEid: The source chain endpoint ID.  - sender: The sender address on the src chain.  - nonce: The nonce of the message._message The lzReceive payload.Applications can optionally choose to implement separate composeMsg senders that are NOT the bridging layer.The default sender IS the OAppReceiver implementer.",
        "params": {
          "_sender": "The sender address."
        },
        "returns": {
          "_0": "isSender Is a valid sender."
        }
      },
      "lzReceive((uint32,bytes32,uint64),bytes32,bytes,address,bytes)": {
        "details": "Entry point for receiving messages or packets from the endpoint.Entry point for receiving msg/packet from the LayerZero endpoint.",
        "params": {
          "_executor": "The address of the executor for the received message.",
          "_extraData": "Additional arbitrary data provided by the corresponding executor.",
          "_guid": "The unique identifier for the received LayerZero message.",
          "_message": "The payload of the received message.",
          "_origin": "The origin information containing the source endpoint and sender address.  - srcEid: The source chain endpoint ID.  - sender: The sender address on the src chain.  - nonce: The nonce of the message."
        }
      },
      "nextNonce(uint32,bytes32)": {
        "params": {
          "sender": "The sender address",
          "srcEid": "The source chain ID"
        },
        "returns": {
          "_0": "uint64 The next nonce"
        }
      },
      "oAppVersion()": {
        "returns": {
          "receiverVersion": "The version of the OAppReceiver.sol implementation.",
          "senderVersion": "The version of the OAppSender.sol implementation."
        }
      },
      "owner()": {
        "details": "Returns the address of the current owner."
      },
      "quote(uint32,bytes,bytes,bool)": {
        "params": {
          "message": "The message to send",
          "options": "The options for the message",
          "payInLzToken": "Whether to pay in ZRO token",
          "targetChain": "The target chain ID"
        },
        "returns": {
          "_0": "MessagingFee The gas fee"
        }
      },
      "quoteSendString(uint32,string,bytes,bool)": {
        "params": {
          "_dstEid": "Destination chain's endpoint ID.",
          "_options": "Message execution options (e.g., for sending gas to destination).",
          "_payInLzToken": "Whether to return fee in ZRO token.",
          "_string": "The string to send."
        },
        "returns": {
          "fee": "A `MessagingFee` struct containing the calculated gas fee in either the native token or ZRO token."
        }
      },
      "renounceOwnership()": {
        "details": "Leaves the contract without owner. It will not be possible to call `onlyOwner` functions. Can only be called by the current owner. NOTE: Renouncing ownership will leave the contract without an owner, thereby disabling any functionality that is only available to the owner."
      },
      "sendString(uint32,string,bytes)": {
        "params": {
          "_dstEid": "Destination Endpoint ID (uint32)",
          "_options": "Execution options for gas on the destination (bytes)",
          "_string": "The string to send"
        }
      },
      "setDelegate(address)": {
        "details": "Only the owner/admin of the OApp can call this function.Provides the ability for a delegate to set configs, on behalf of the OApp, directly on the Endpoint contract.",
        "params": {
          "_delegate": "The address of the delegate to be set."
        }
      },
      "setEnforcedOptions((uint32,uint16,bytes)[])": {
        "details": "Sets the enforced options for specific endpoint and message type combinations.Only the owner/admin of the OApp can call this function.Provides a way for the OApp to enforce things like paying for PreCrime, AND/OR minimum dst lzReceive gas amounts etc.These enforced options can vary as the potential options/execution on the remote may differ as per the msgType. eg. Amount of lzReceive() gas necessary to deliver a lzCompose() message adds overhead you dont want to pay if you are only making a standard LayerZero message ie. lzReceive() WITHOUT sendCompose().",
        "params": {
          "_enforcedOptions": "An array of EnforcedOptionParam structures specifying enforced options."
        }
      },
      "setGovernanceParams(uint256,uint256,uint256)": {
        "params": {
          "_minVotingPower": "The minimum voting power",
          "_quorumThreshold": "The quorum threshold",
          "_votingPeriod": "The voting period"
        }
      },
      "setPeer(uint32,bytes32)": {
        "details": "Only the owner/admin of the OApp can call this function.Indicates that the peer is trusted to send LayerZero messages to this OApp.Set this to bytes32(0) to remove the peer address.Peer is a bytes32 to accommodate non-evm chains.",
        "params": {
          "_eid": "The endpoint ID.",
          "_peer": "The address of the peer to be associated with the corresponding endpoint."
        }
      },
      "setRemoteExecutor(uint32,address)": {
        "params": {
          "chainId": "The chain ID to set the executor for",
          "executor": "The executor address"
        }
      },
      "transferOwnership(address)": {
        "details": "Transfers ownership of the contract to a new account (`newOwner`). Can only be called by the current owner."
      },
      "updateVotingPower(address,uint256)": {
        "params": {
          "account": "The account to update the voting power for",
          "power": "The new voting power"
        }
      },
      "vote(uint256,uint8)": {
        "params": {
          "proposalId": "ID of the proposal to vote on",
          "voteType": "Type of vote (FOR, AGAINST, ABSTAIN)"
        }
      }
    },
    "version": 1
  },
  "userdoc": {
    "kind": "user",
    "methods": {
      "SEND()": {
        "notice": "Msg type for sending a string, for use in OAppOptionsType3 as an enforced option"
      },
      "allowInitializePath((uint32,bytes32,uint64))": {
        "notice": "Checks if the path initialization is allowed based on the provided origin."
      },
      "combineOptions(uint32,uint16,bytes)": {
        "notice": "Combines options for a given endpoint and message type."
      },
      "createProposal(string,uint8,bytes,uint32[],bytes32[])": {
        "notice": "Create a new proposal"
      },
      "emergencyPause()": {
        "notice": "Pause the contract for emergency"
      },
      "endpoint()": {
        "notice": "Retrieves the LayerZero endpoint associated with the OApp."
      },
      "executeProposal(uint256)": {
        "notice": "Execute a passed proposal"
      },
      "getAllSupportedChains()": {
        "notice": "Get all supported chains (external function)"
      },
      "getProposal(uint256)": {
        "notice": "Get a proposal"
      },
      "getVotingPower(address)": {
        "notice": "Get the voting power for an account"
      },
      "isComposeMsgSender((uint32,bytes32,uint64),bytes,address)": {
        "notice": "Indicates whether an address is an approved composeMsg sender to the Endpoint."
      },
      "nextNonce(uint32,bytes32)": {
        "notice": "Get the next nonce for a chain"
      },
      "oAppVersion()": {
        "notice": "Retrieves the OApp version information."
      },
      "peers(uint32)": {
        "notice": "Retrieves the peer (OApp) associated with a corresponding endpoint."
      },
      "quote(uint32,bytes,bytes,bool)": {
        "notice": "Quote the gas needed to send a message"
      },
      "quoteSendString(uint32,string,bytes,bool)": {
        "notice": "Quotes the gas needed to pay for the full omnichain transaction in native gas or ZRO token."
      },
      "sendString(uint32,string,bytes)": {
        "notice": "Send a string to a remote OApp on another chain"
      },
      "setDelegate(address)": {
        "notice": "Sets the delegate address for the OApp."
      },
      "setGovernanceParams(uint256,uint256,uint256)": {
        "notice": "Set the governance parameters"
      },
      "setPeer(uint32,bytes32)": {
        "notice": "Sets the peer address (OApp instance) for a corresponding endpoint."
      },
      "setRemoteExecutor(uint32,address)": {
        "notice": "Set a remote executor for a chain"
      },
      "updateVotingPower(address,uint256)": {
        "notice": "Update the voting power for an account"
      },
      "vote(uint256,uint8)": {
        "notice": "Cast a vote on a proposal"
      }
    },
    "version": 1
  },
  "storageLayout": {
    "storage": [
      {
        "astId": 3065,
        "contract": "contracts/MyOApp.sol:OmniDaoController",
        "label": "_owner",
        "offset": 0,
        "slot": "0",
        "type": "t_address"
      },
      {
        "astId": 1909,
        "contract": "contracts/MyOApp.sol:OmniDaoController",
        "label": "peers",
        "offset": 0,
        "slot": "1",
        "type": "t_mapping(t_uint32,t_bytes32)"
      },
      {
        "astId": 2505,
        "contract": "contracts/MyOApp.sol:OmniDaoController",
        "label": "enforcedOptions",
        "offset": 0,
        "slot": "2",
        "type": "t_mapping(t_uint32,t_mapping(t_uint16,t_bytes_storage))"
      },
      {
        "astId": 3877,
        "contract": "contracts/MyOApp.sol:OmniDaoController",
        "label": "_status",
        "offset": 0,
        "slot": "3",
        "type": "t_uint256"
      },
      {
        "astId": 5779,
        "contract": "contracts/MyOApp.sol:OmniDaoController",
        "label": "proposals",
        "offset": 0,
        "slot": "4",
        "type": "t_mapping(t_uint256,t_struct(Proposal)5763_storage)"
      },
      {
        "astId": 5786,
        "contract": "contracts/MyOApp.sol:OmniDaoController",
        "label": "votes",
        "offset": 0,
        "slot": "5",
        "type": "t_mapping(t_uint256,t_mapping(t_address,t_enum(VoteType)5767))"
      },
      {
        "astId": 5792,
        "contract": "contracts/MyOApp.sol:OmniDaoController",
        "label": "hasVoted",
        "offset": 0,
        "slot": "6",
        "type": "t_mapping(t_uint256,t_mapping(t_address,t_bool))"
      },
      {
        "astId": 5796,
        "contract": "contracts/MyOApp.sol:OmniDaoController",
        "label": "votingPower",
        "offset": 0,
        "slot": "7",
        "type": "t_mapping(t_address,t_uint256)"
      },
      {
        "astId": 5800,
        "contract": "contracts/MyOApp.sol:OmniDaoController",
        "label": "supportedChains",
        "offset": 0,
        "slot": "8",
        "type": "t_mapping(t_uint32,t_bool)"
      },
      {
        "astId": 5804,
        "contract": "contracts/MyOApp.sol:OmniDaoController",
        "label": "remoteExecutors",
        "offset": 0,
        "slot": "9",
        "type": "t_mapping(t_uint32,t_address)"
      },
      {
        "astId": 5808,
        "contract": "contracts/MyOApp.sol:OmniDaoController",
        "label": "executedOperations",
        "offset": 0,
        "slot": "10",
        "type": "t_mapping(t_bytes32,t_bool)"
      },
      {
        "astId": 5812,
        "contract": "contracts/MyOApp.sol:OmniDaoController",
        "label": "lastExecutionNonce",
        "offset": 0,
        "slot": "11",
        "type": "t_mapping(t_uint32,t_uint256)"
      },
      {
        "astId": 5814,
        "contract": "contracts/MyOApp.sol:OmniDaoController",
        "label": "proposalCount",
        "offset": 0,
        "slot": "12",
        "type": "t_uint256"
      },
      {
        "astId": 5816,
        "contract": "contracts/MyOApp.sol:OmniDaoController",
        "label": "votingPeriod",
        "offset": 0,
        "slot": "13",
        "type": "t_uint256"
      },
      {
        "astId": 5818,
        "contract": "contracts/MyOApp.sol:OmniDaoController",
        "label": "minimumVotingPower",
        "offset": 0,
        "slot": "14",
        "type": "t_uint256"
      },
      {
        "astId": 5820,
        "contract": "contracts/MyOApp.sol:OmniDaoController",
        "label": "quorumThreshold",
        "offset": 0,
        "slot": "15",
        "type": "t_uint256"
      },
      {
        "astId": 5822,
        "contract": "contracts/MyOApp.sol:OmniDaoController",
        "label": "totalVotingPower",
        "offset": 0,
        "slot": "16",
        "type": "t_uint256"
      },
      {
        "astId": 5824,
        "contract": "contracts/MyOApp.sol:OmniDaoController",
        "label": "isPaused",
        "offset": 0,
        "slot": "17",
        "type": "t_bool"
      },
      {
        "astId": 5828,
        "contract": "contracts/MyOApp.sol:OmniDaoController",
        "label": "isPausable",
        "offset": 0,
        "slot": "18",
        "type": "t_mapping(t_address,t_bool)"
      },
      {
        "astId": 5831,
        "contract": "contracts/MyOApp.sol:OmniDaoController",
        "label": "supportedChainsList",
        "offset": 0,
        "slot": "19",
        "type": "t_array(t_uint32)dyn_storage"
      }
    ],
    "types": {
      "t_address": {
        "encoding": "inplace",
        "label": "address",
        "numberOfBytes": "20"
      },
      "t_array(t_bytes32)dyn_storage": {
        "base": "t_bytes32",
        "encoding": "dynamic_array",
        "label": "bytes32[]",
        "numberOfBytes": "32"
      },
      "t_array(t_uint32)dyn_storage": {
        "base": "t_uint32",
        "encoding": "dynamic_array",
        "label": "uint32[]",
        "numberOfBytes": "32"
      },
      "t_bool": {
        "encoding": "inplace",
        "label": "bool",
        "numberOfBytes": "1"
      },
      "t_bytes32": {
        "encoding": "inplace",
        "label": "bytes32",
        "numberOfBytes": "32"
      },
      "t_bytes_storage": {
        "encoding": "bytes",
        "label": "bytes",
        "numberOfBytes": "32"
      },
      "t_enum(ProposalType)5774": {
        "encoding": "inplace",
        "label": "enum OmniDaoController.ProposalType",
        "numberOfBytes": "1"
      },
      "t_enum(VoteType)5767": {
        "encoding": "inplace",
        "label": "enum OmniDaoController.VoteType",
        "numberOfBytes": "1"
      },
      "t_mapping(t_address,t_bool)": {
        "encoding": "mapping",
        "key": "t_address",
        "label": "mapping(address => bool)",
        "numberOfBytes": "32",
        "value": "t_bool"
      },
      "t_mapping(t_address,t_enum(VoteType)5767)": {
        "encoding": "mapping",
        "key": "t_address",
        "label": "mapping(address => enum OmniDaoController.VoteType)",
        "numberOfBytes": "32",
        "value": "t_enum(VoteType)5767"
      },
      "t_mapping(t_address,t_uint256)": {
        "encoding": "mapping",
        "key": "t_address",
        "label": "mapping(address => uint256)",
        "numberOfBytes": "32",
        "value": "t_uint256"
      },
      "t_mapping(t_bytes32,t_bool)": {
        "encoding": "mapping",
        "key": "t_bytes32",
        "label": "mapping(bytes32 => bool)",
        "numberOfBytes": "32",
        "value": "t_bool"
      },
      "t_mapping(t_uint16,t_bytes_storage)": {
        "encoding": "mapping",
        "key": "t_uint16",
        "label": "mapping(uint16 => bytes)",
        "numberOfBytes": "32",
        "value": "t_bytes_storage"
      },
      "t_mapping(t_uint256,t_mapping(t_address,t_bool))": {
        "encoding": "mapping",
        "key": "t_uint256",
        "label": "mapping(uint256 => mapping(address => bool))",
        "numberOfBytes": "32",
        "value": "t_mapping(t_address,t_bool)"
      },
      "t_mapping(t_uint256,t_mapping(t_address,t_enum(VoteType)5767))": {
        "encoding": "mapping",
        "key": "t_uint256",
        "label": "mapping(uint256 => mapping(address => enum OmniDaoController.VoteType))",
        "numberOfBytes": "32",
        "value": "t_mapping(t_address,t_enum(VoteType)5767)"
      },
      "t_mapping(t_uint256,t_struct(Proposal)5763_storage)": {
        "encoding": "mapping",
        "key": "t_uint256",
        "label": "mapping(uint256 => struct OmniDaoController.Proposal)",
        "numberOfBytes": "32",
        "value": "t_struct(Proposal)5763_storage"
      },
      "t_mapping(t_uint32,t_address)": {
        "encoding": "mapping",
        "key": "t_uint32",
        "label": "mapping(uint32 => address)",
        "numberOfBytes": "32",
        "value": "t_address"
      },
      "t_mapping(t_uint32,t_bool)": {
        "encoding": "mapping",
        "key": "t_uint32",
        "label": "mapping(uint32 => bool)",
        "numberOfBytes": "32",
        "value": "t_bool"
      },
      "t_mapping(t_uint32,t_bytes32)": {
        "encoding": "mapping",
        "key": "t_uint32",
        "label": "mapping(uint32 => bytes32)",
        "numberOfBytes": "32",
        "value": "t_bytes32"
      },
      "t_mapping(t_uint32,t_mapping(t_uint16,t_bytes_storage))": {
        "encoding": "mapping",
        "key": "t_uint32",
        "label": "mapping(uint32 => mapping(uint16 => bytes))",
        "numberOfBytes": "32",
        "value": "t_mapping(t_uint16,t_bytes_storage)"
      },
      "t_mapping(t_uint32,t_uint256)": {
        "encoding": "mapping",
        "key": "t_uint32",
        "label": "mapping(uint32 => uint256)",
        "numberOfBytes": "32",
        "value": "t_uint256"
      },
      "t_string_storage": {
        "encoding": "bytes",
        "label": "string",
        "numberOfBytes": "32"
      },
      "t_struct(Proposal)5763_storage": {
        "encoding": "inplace",
        "label": "struct OmniDaoController.Proposal",
        "members": [
          {
            "astId": 5737,
            "contract": "contracts/MyOApp.sol:OmniDaoController",
            "label": "proposalId",
            "offset": 0,
            "slot": "0",
            "type": "t_uint256"
          },
          {
            "astId": 5739,
            "contract": "contracts/MyOApp.sol:OmniDaoController",
            "label": "proposer",
            "offset": 0,
            "slot": "1",
            "type": "t_address"
          },
          {
            "astId": 5741,
            "contract": "contracts/MyOApp.sol:OmniDaoController",
            "label": "description",
            "offset": 0,
            "slot": "2",
            "type": "t_string_storage"
          },
          {
            "astId": 5743,
            "contract": "contracts/MyOApp.sol:OmniDaoController",
            "label": "votesFor",
            "offset": 0,
            "slot": "3",
            "type": "t_uint256"
          },
          {
            "astId": 5745,
            "contract": "contracts/MyOApp.sol:OmniDaoController",
            "label": "votesAgainst",
            "offset": 0,
            "slot": "4",
            "type": "t_uint256"
          },
          {
            "astId": 5747,
            "contract": "contracts/MyOApp.sol:OmniDaoController",
            "label": "endTime",
            "offset": 0,
            "slot": "5",
            "type": "t_uint256"
          },
          {
            "astId": 5749,
            "contract": "contracts/MyOApp.sol:OmniDaoController",
            "label": "startTime",
            "offset": 0,
            "slot": "6",
            "type": "t_uint256"
          },
          {
            "astId": 5751,
            "contract": "contracts/MyOApp.sol:OmniDaoController",
            "label": "executed",
            "offset": 0,
            "slot": "7",
            "type": "t_bool"
          },
          {
            "astId": 5754,
            "contract": "contracts/MyOApp.sol:OmniDaoController",
            "label": "proposalType",
            "offset": 1,
            "slot": "7",
            "type": "t_enum(ProposalType)5774"
          },
          {
            "astId": 5756,
            "contract": "contracts/MyOApp.sol:OmniDaoController",
            "label": "executionData",
            "offset": 0,
            "slot": "8",
            "type": "t_bytes_storage"
          },
          {
            "astId": 5759,
            "contract": "contracts/MyOApp.sol:OmniDaoController",
            "label": "targetChainIds",
            "offset": 0,
            "slot": "9",
            "type": "t_array(t_uint32)dyn_storage"
          },
          {
            "astId": 5762,
            "contract": "contracts/MyOApp.sol:OmniDaoController",
            "label": "remoteCallData",
            "offset": 0,
            "slot": "10",
            "type": "t_array(t_bytes32)dyn_storage"
          }
        ],
        "numberOfBytes": "352"
      },
      "t_uint16": {
        "encoding": "inplace",
        "label": "uint16",
        "numberOfBytes": "2"
      },
      "t_uint256": {
        "encoding": "inplace",
        "label": "uint256",
        "numberOfBytes": "32"
      },
      "t_uint32": {
        "encoding": "inplace",
        "label": "uint32",
        "numberOfBytes": "4"
      }
    }
  }
}